{
  "contractName": "SoulsHarvest",
  "abi": [
    {
      "inputs": [
        {
          "internalType": "address",
          "name": "_cthu",
          "type": "address"
        },
        {
          "internalType": "address",
          "name": "_souls",
          "type": "address"
        }
      ],
      "stateMutability": "nonpayable",
      "type": "constructor"
    },
    {
      "anonymous": false,
      "inputs": [
        {
          "indexed": true,
          "internalType": "address",
          "name": "buyer",
          "type": "address"
        },
        {
          "indexed": false,
          "internalType": "uint256",
          "name": "amount",
          "type": "uint256"
        }
      ],
      "name": "Bought",
      "type": "event"
    },
    {
      "anonymous": false,
      "inputs": [
        {
          "indexed": true,
          "internalType": "address",
          "name": "previousOwner",
          "type": "address"
        },
        {
          "indexed": true,
          "internalType": "address",
          "name": "newOwner",
          "type": "address"
        }
      ],
      "name": "OwnershipTransferred",
      "type": "event"
    },
    {
      "inputs": [],
      "name": "cthu",
      "outputs": [
        {
          "internalType": "contract IERC20",
          "name": "",
          "type": "address"
        }
      ],
      "stateMutability": "view",
      "type": "function",
      "constant": true
    },
    {
      "inputs": [],
      "name": "owner",
      "outputs": [
        {
          "internalType": "address",
          "name": "",
          "type": "address"
        }
      ],
      "stateMutability": "view",
      "type": "function",
      "constant": true
    },
    {
      "inputs": [],
      "name": "renounceOwnership",
      "outputs": [],
      "stateMutability": "nonpayable",
      "type": "function"
    },
    {
      "inputs": [],
      "name": "souls",
      "outputs": [
        {
          "internalType": "contract IERC20",
          "name": "",
          "type": "address"
        }
      ],
      "stateMutability": "view",
      "type": "function",
      "constant": true
    },
    {
      "inputs": [
        {
          "internalType": "address",
          "name": "newOwner",
          "type": "address"
        }
      ],
      "name": "transferOwnership",
      "outputs": [],
      "stateMutability": "nonpayable",
      "type": "function"
    },
    {
      "inputs": [
        {
          "internalType": "address",
          "name": "tokenAddress",
          "type": "address"
        },
        {
          "internalType": "uint256",
          "name": "amount",
          "type": "uint256"
        }
      ],
      "name": "withdrawERC20Tokens",
      "outputs": [],
      "stateMutability": "nonpayable",
      "type": "function"
    },
    {
      "inputs": [
        {
          "internalType": "uint256",
          "name": "amount",
          "type": "uint256"
        }
      ],
      "name": "buy",
      "outputs": [],
      "stateMutability": "nonpayable",
      "type": "function"
    }
  ],
  "bytecode": "0x608060405234801561001057600080fd5b50604051610ee8380380610ee88339818101604052604081101561003357600080fd5b810190808051906020019092919080519060200190929190505050600061005e61020760201b60201c565b9050806000806101000a81548173ffffffffffffffffffffffffffffffffffffffff021916908373ffffffffffffffffffffffffffffffffffffffff1602179055508073ffffffffffffffffffffffffffffffffffffffff16600073ffffffffffffffffffffffffffffffffffffffff167f8be0079c531659141344cd1fd0a4f28419497f9722a3daafe3b4186f6b6457e060405160405180910390a35081600160006101000a81548173ffffffffffffffffffffffffffffffffffffffff021916908373ffffffffffffffffffffffffffffffffffffffff16021790555080600260006101000a81548173ffffffffffffffffffffffffffffffffffffffff021916908373ffffffffffffffffffffffffffffffffffffffff16021790555080600360006101000a81548173ffffffffffffffffffffffffffffffffffffffff021916908373ffffffffffffffffffffffffffffffffffffffff16021790555080600460006101000a81548173ffffffffffffffffffffffffffffffffffffffff021916908373ffffffffffffffffffffffffffffffffffffffff160217905550505061020f565b600033905090565b610cca8061021e6000396000f3fe608060405234801561001057600080fd5b506004361061007d5760003560e01c80638da5cb5b1161005b5780638da5cb5b146100f4578063d96a094a14610128578063e49cb2fb14610156578063f2fde38b146101a45761007d565b80632ca6853e146100825780632eb246c5146100b6578063715018a6146100ea575b600080fd5b61008a6101e8565b604051808273ffffffffffffffffffffffffffffffffffffffff16815260200191505060405180910390f35b6100be61020e565b604051808273ffffffffffffffffffffffffffffffffffffffff16815260200191505060405180910390f35b6100f2610234565b005b6100fc6103ba565b604051808273ffffffffffffffffffffffffffffffffffffffff16815260200191505060405180910390f35b6101546004803603602081101561013e57600080fd5b81019080803590602001909291905050506103e3565b005b6101a26004803603604081101561016c57600080fd5b81019080803573ffffffffffffffffffffffffffffffffffffffff169060200190929190803590602001909291905050506107a0565b005b6101e6600480360360208110156101ba57600080fd5b81019080803573ffffffffffffffffffffffffffffffffffffffff169060200190929190505050610a5b565b005b600160009054906101000a900473ffffffffffffffffffffffffffffffffffffffff1681565b600260009054906101000a900473ffffffffffffffffffffffffffffffffffffffff1681565b61023c610c66565b73ffffffffffffffffffffffffffffffffffffffff1660008054906101000a900473ffffffffffffffffffffffffffffffffffffffff1673ffffffffffffffffffffffffffffffffffffffff16146102fc576040517f08c379a00000000000000000000000000000000000000000000000000000000081526004018080602001828103825260208152602001807f4f776e61626c653a2063616c6c6572206973206e6f7420746865206f776e657281525060200191505060405180910390fd5b600073ffffffffffffffffffffffffffffffffffffffff1660008054906101000a900473ffffffffffffffffffffffffffffffffffffffff1673ffffffffffffffffffffffffffffffffffffffff167f8be0079c531659141344cd1fd0a4f28419497f9722a3daafe3b4186f6b6457e060405160405180910390a360008060006101000a81548173ffffffffffffffffffffffffffffffffffffffff021916908373ffffffffffffffffffffffffffffffffffffffff160217905550565b60008060009054906101000a900473ffffffffffffffffffffffffffffffffffffffff16905090565b80600260009054906101000a900473ffffffffffffffffffffffffffffffffffffffff1673ffffffffffffffffffffffffffffffffffffffff166370a08231336040518263ffffffff1660e01b8152600401808273ffffffffffffffffffffffffffffffffffffffff16815260200191505060206040518083038186803b15801561046d57600080fd5b505afa158015610481573d6000803e3d6000fd5b505050506040513d602081101561049757600080fd5b810190808051906020019092919050505010156104b357600080fd5b6000606482816104bf57fe5b04905080600160009054906101000a900473ffffffffffffffffffffffffffffffffffffffff1673ffffffffffffffffffffffffffffffffffffffff166370a08231306040518263ffffffff1660e01b8152600401808273ffffffffffffffffffffffffffffffffffffffff16815260200191505060206040518083038186803b15801561054c57600080fd5b505afa158015610560573d6000803e3d6000fd5b505050506040513d602081101561057657600080fd5b8101908080519060200190929190505050101561059257600080fd5b600260009054906101000a900473ffffffffffffffffffffffffffffffffffffffff1673ffffffffffffffffffffffffffffffffffffffff166323b872dd3330856040518463ffffffff1660e01b8152600401808473ffffffffffffffffffffffffffffffffffffffff1681526020018373ffffffffffffffffffffffffffffffffffffffff1681526020018281526020019350505050602060405180830381600087803b15801561064357600080fd5b505af1158015610657573d6000803e3d6000fd5b505050506040513d602081101561066d57600080fd5b810190808051906020019092919050505050600160009054906101000a900473ffffffffffffffffffffffffffffffffffffffff1673ffffffffffffffffffffffffffffffffffffffff1663a9059cbb33836040518363ffffffff1660e01b8152600401808373ffffffffffffffffffffffffffffffffffffffff16815260200182815260200192505050602060405180830381600087803b15801561071257600080fd5b505af1158015610726573d6000803e3d6000fd5b505050506040513d602081101561073c57600080fd5b8101908080519060200190929190505050503373ffffffffffffffffffffffffffffffffffffffff167fc55650ccda1011e1cdc769b1fbf546ebb8c97800b6072b49e06cd560305b1d67836040518082815260200191505060405180910390a25050565b6107a8610c66565b73ffffffffffffffffffffffffffffffffffffffff1660008054906101000a900473ffffffffffffffffffffffffffffffffffffffff1673ffffffffffffffffffffffffffffffffffffffff1614610868576040517f08c379a00000000000000000000000000000000000000000000000000000000081526004018080602001828103825260208152602001807f4f776e61626c653a2063616c6c6572206973206e6f7420746865206f776e657281525060200191505060405180910390fd5b600460009054906101000a900473ffffffffffffffffffffffffffffffffffffffff1673ffffffffffffffffffffffffffffffffffffffff168273ffffffffffffffffffffffffffffffffffffffff1614156108c357600080fd5b3073ffffffffffffffffffffffffffffffffffffffff168273ffffffffffffffffffffffffffffffffffffffff1614156108fc57600080fd5b808273ffffffffffffffffffffffffffffffffffffffff166370a08231306040518263ffffffff1660e01b8152600401808273ffffffffffffffffffffffffffffffffffffffff16815260200191505060206040518083038186803b15801561096457600080fd5b505afa158015610978573d6000803e3d6000fd5b505050506040513d602081101561098e57600080fd5b810190808051906020019092919050505010156109aa57600080fd5b8173ffffffffffffffffffffffffffffffffffffffff1663a9059cbb33836040518363ffffffff1660e01b8152600401808373ffffffffffffffffffffffffffffffffffffffff16815260200182815260200192505050602060405180830381600087803b158015610a1b57600080fd5b505af1158015610a2f573d6000803e3d6000fd5b505050506040513d6020811015610a4557600080fd5b8101908080519060200190929190505050505050565b610a63610c66565b73ffffffffffffffffffffffffffffffffffffffff1660008054906101000a900473ffffffffffffffffffffffffffffffffffffffff1673ffffffffffffffffffffffffffffffffffffffff1614610b23576040517f08c379a00000000000000000000000000000000000000000000000000000000081526004018080602001828103825260208152602001807f4f776e61626c653a2063616c6c6572206973206e6f7420746865206f776e657281525060200191505060405180910390fd5b600073ffffffffffffffffffffffffffffffffffffffff168173ffffffffffffffffffffffffffffffffffffffff161415610ba9576040517f08c379a0000000000000000000000000000000000000000000000000000000008152600401808060200182810382526026815260200180610c6f6026913960400191505060405180910390fd5b8073ffffffffffffffffffffffffffffffffffffffff1660008054906101000a900473ffffffffffffffffffffffffffffffffffffffff1673ffffffffffffffffffffffffffffffffffffffff167f8be0079c531659141344cd1fd0a4f28419497f9722a3daafe3b4186f6b6457e060405160405180910390a3806000806101000a81548173ffffffffffffffffffffffffffffffffffffffff021916908373ffffffffffffffffffffffffffffffffffffffff16021790555050565b60003390509056fe4f776e61626c653a206e6577206f776e657220697320746865207a65726f2061646472657373a264697066735822122065a52b9c8f873b77bf10cc2f809c3115ad5ead4fe728a50439091a30aa2ab19a64736f6c63430007010033",
  "immutableReferences": {},
  "source": "/**\n/\n/_______/\\\\\\\\\\\\\\\\\\_        __/\\\\\\\\\\\\\\\\\\\\\\\\\\\\\\_        __/\\\\\\________/\\\\\\_        __/\\\\\\________/\\\\\\_        __/\\\\\\_____________        __/\\\\\\________/\\\\\\_        __/\\\\\\________/\\\\\\_                                                               \n/_____/\\\\\\////////__        _\\///////\\\\\\/////__        _\\/\\\\\\_______\\/\\\\\\_        _\\/\\\\\\_______\\/\\\\\\_        _\\/\\\\\\_____________        _\\/\\\\\\_______\\/\\\\\\_        _\\/\\\\\\_______\\/\\\\\\_                                                              \n/ ___/\\\\\\/___________        _______\\/\\\\\\_______        _\\/\\\\\\_______\\/\\\\\\_        _\\/\\\\\\_______\\/\\\\\\_        _\\/\\\\\\_____________        _\\/\\\\\\_______\\/\\\\\\_        _\\/\\\\\\_______\\/\\\\\\_                                                             \n/  __/\\\\\\_____________        _______\\/\\\\\\_______        _\\/\\\\\\\\\\\\\\\\\\\\\\\\\\\\\\_        _\\/\\\\\\_______\\/\\\\\\_        _\\/\\\\\\_____________        _\\/\\\\\\\\\\\\\\\\\\\\\\\\\\\\\\_        _\\/\\\\\\_______\\/\\\\\\_                                                            \n/   _\\/\\\\\\_____________        _______\\/\\\\\\_______        _\\/\\\\\\/////////\\\\\\_        _\\/\\\\\\_______\\/\\\\\\_        _\\/\\\\\\_____________        _\\/\\\\\\/////////\\\\\\_        _\\/\\\\\\_______\\/\\\\\\_                                                           \n/    _\\//\\\\\\____________        _______\\/\\\\\\_______        _\\/\\\\\\_______\\/\\\\\\_        _\\/\\\\\\_______\\/\\\\\\_        _\\/\\\\\\_____________        _\\/\\\\\\_______\\/\\\\\\_        _\\/\\\\\\_______\\/\\\\\\_                                                          \n/     __\\///\\\\\\__________        _______\\/\\\\\\_______        _\\/\\\\\\_______\\/\\\\\\_        _\\//\\\\\\______/\\\\\\__        _\\/\\\\\\_____________        _\\/\\\\\\_______\\/\\\\\\_        _\\//\\\\\\______/\\\\\\__                                                         \n/      ____\\////\\\\\\\\\\\\\\\\\\_        _______\\/\\\\\\_______        _\\/\\\\\\_______\\/\\\\\\_        __\\///\\\\\\\\\\\\\\\\\\/___        _\\/\\\\\\\\\\\\\\\\\\\\\\\\\\\\\\_        _\\/\\\\\\_______\\/\\\\\\_        __\\///\\\\\\\\\\\\\\\\\\/___                                                        \n/       _______\\/////////__        _______\\///________        _\\///________\\///__        ____\\/////////_____        _\\///////////////__        _\\///________\\///__        ____\\/////////_____                                                       \n/___________          ___________         _____/\\\\\\\\\\\\\\\\\\\\\\___        _______/\\\\\\\\\\______        __/\\\\\\________/\\\\\\_        __/\\\\\\_____________         ___________          ___________                                                            \n/ ___________          ___________         ___/\\\\\\/////////\\\\\\_        _____/\\\\\\///\\\\\\____        _\\/\\\\\\_______\\/\\\\\\_        _\\/\\\\\\_____________         ___________          ___________                                                           \n/  ___________          ___________         __\\//\\\\\\______\\///__        ___/\\\\\\/__\\///\\\\\\__        _\\/\\\\\\_______\\/\\\\\\_        _\\/\\\\\\_____________         ___________          ___________                                                          \n/   ___________          ___________         ___\\////\\\\\\_________        __/\\\\\\______\\//\\\\\\_        _\\/\\\\\\_______\\/\\\\\\_        _\\/\\\\\\_____________         ___________          ___________                                                         \n/    ___________          ___________         ______\\////\\\\\\______        _\\/\\\\\\_______\\/\\\\\\_        _\\/\\\\\\_______\\/\\\\\\_        _\\/\\\\\\_____________         ___________          ___________                                                        \n/     ___________          ___________         _________\\////\\\\\\___        _\\//\\\\\\______/\\\\\\__        _\\/\\\\\\_______\\/\\\\\\_        _\\/\\\\\\_____________         ___________          ___________                                                       \n/      ___________          ___________         __/\\\\\\______\\//\\\\\\__        __\\///\\\\\\__/\\\\\\____        _\\//\\\\\\______/\\\\\\__        _\\/\\\\\\_____________         ___________          ___________                                                      \n/       ___________          ___________         _\\///\\\\\\\\\\\\\\\\\\\\\\/___        ____\\///\\\\\\\\\\/_____        __\\///\\\\\\\\\\\\\\\\\\/___        _\\/\\\\\\\\\\\\\\\\\\\\\\\\\\\\\\_         ___________          ___________                                                     \n/        ___________          ___________         ___\\///////////_____        ______\\/////_______        ____\\/////////_____        _\\///////////////__         ___________          ___________                                                    \n/_/\\\\\\________/\\\\\\_        _____/\\\\\\\\\\\\\\\\\\____        ____/\\\\\\\\\\\\\\\\\\_____        __/\\\\\\________/\\\\\\_        __/\\\\\\\\\\\\\\\\\\\\\\\\\\\\\\_        _____/\\\\\\\\\\\\\\\\\\\\\\___        __/\\\\\\\\\\\\\\\\\\\\\\\\\\\\\\_        __/\\\\\\\\\\\\\\\\\\\\\\\\\\\\\\_        ____/\\\\\\\\\\\\\\\\\\_____        \n/_\\/\\\\\\_______\\/\\\\\\_        ___/\\\\\\\\\\\\\\\\\\\\\\\\\\__        __/\\\\\\///////\\\\\\___        _\\/\\\\\\_______\\/\\\\\\_        _\\/\\\\\\///////////__        ___/\\\\\\/////////\\\\\\_        _\\///////\\\\\\/////__        _\\/\\\\\\///////////__        __/\\\\\\///////\\\\\\___       \n/ _\\/\\\\\\_______\\/\\\\\\_        __/\\\\\\/////////\\\\\\_        _\\/\\\\\\_____\\/\\\\\\___        _\\//\\\\\\______/\\\\\\__        _\\/\\\\\\_____________        __\\//\\\\\\______\\///__        _______\\/\\\\\\_______        _\\/\\\\\\_____________        _\\/\\\\\\_____\\/\\\\\\___      \n/  _\\/\\\\\\\\\\\\\\\\\\\\\\\\\\\\\\_        _\\/\\\\\\_______\\/\\\\\\_        _\\/\\\\\\\\\\\\\\\\\\\\\\/____        __\\//\\\\\\____/\\\\\\___        _\\/\\\\\\\\\\\\\\\\\\\\\\_____        ___\\////\\\\\\_________        _______\\/\\\\\\_______        _\\/\\\\\\\\\\\\\\\\\\\\\\_____        _\\/\\\\\\\\\\\\\\\\\\\\\\/____     \n/   _\\/\\\\\\/////////\\\\\\_        _\\/\\\\\\\\\\\\\\\\\\\\\\\\\\\\\\_        _\\/\\\\\\//////\\\\\\____        ___\\//\\\\\\__/\\\\\\____        _\\/\\\\\\///////______        ______\\////\\\\\\______        _______\\/\\\\\\_______        _\\/\\\\\\///////______        _\\/\\\\\\//////\\\\\\____    \n/    _\\/\\\\\\_______\\/\\\\\\_        _\\/\\\\\\/////////\\\\\\_        _\\/\\\\\\____\\//\\\\\\___        ____\\//\\\\\\/\\\\\\_____        _\\/\\\\\\_____________        _________\\////\\\\\\___        _______\\/\\\\\\_______        _\\/\\\\\\_____________        _\\/\\\\\\____\\//\\\\\\___   \n/     _\\/\\\\\\_______\\/\\\\\\_        _\\/\\\\\\_______\\/\\\\\\_        _\\/\\\\\\_____\\//\\\\\\__        _____\\//\\\\\\\\\\______        _\\/\\\\\\_____________        __/\\\\\\______\\//\\\\\\__        _______\\/\\\\\\_______        _\\/\\\\\\_____________        _\\/\\\\\\_____\\//\\\\\\__  \n/      _\\/\\\\\\_______\\/\\\\\\_        _\\/\\\\\\_______\\/\\\\\\_        _\\/\\\\\\______\\//\\\\\\_        ______\\//\\\\\\_______        _\\/\\\\\\\\\\\\\\\\\\\\\\\\\\\\\\_        _\\///\\\\\\\\\\\\\\\\\\\\\\/___        _______\\/\\\\\\_______        _\\/\\\\\\\\\\\\\\\\\\\\\\\\\\\\\\_        _\\/\\\\\\______\\//\\\\\\_ \n/       _\\///________\\///__        _\\///________\\///__        _\\///________\\///__        _______\\///________        _\\///////////////__        ___\\///////////_____        _______\\///________        _\\///////////////__        _\\///________\\///__\n/                                                                                                                       \n///                                                                                                                       \n/*                                                       *******                                                        \n/*                                              ************************                                                \n/*                                           ******************************                                            \n/*                                         **********************************                                          \n/*                                        ************************************                                         \n/*                                        ************************************                                         \n/*                                        ************************************                                         \n/*      //////////////////////////////////************************************////////////////////////////////////    \n/*      ///                               ************************************                                 ///      \n/*      ///                               ************************************                                 ///      \n/*      ///                              ***************************************                               ///      \n/*      ///              ********       *****************************************       ********               ///      \n/*      ///            ***********     *******************************************    ************             ///      \n/*      ///          *******   ****  **********//////************////////***********  ****   *******           ///      \n/*      ///         ******    *****  ***********************************************  *****    *****           ///      \n/*      ///        ******    *****   ***********************************************   *****   ******          ///      \n/*      ///     **************          *****************************************        *****************     ///      \n/*      ///  ***  * *********            ***************************************             ***************   ///      \n/*      ///*****     *******           *******************************************           *******     ***** ///      \n/*      ///***        *****************************************************************************        *** ///      \n/*      ///*             **********************************************************************              **///   \n/*      ///                  **************************************************************                   *///      \n/*      ///                  * *       ******************************************                              ///      \n/*      ///                  *       ***********************************************                           ///      \n/*      ///                  *     ******* *********************************** *******                         ///      \n/*      ///                  *   *******   ***********************************   ******                        ///      \n/*      ///                     *****      ***********************************      ****                       ///      \n/*      ///                    *****      ************************************       ***                       ///      \n/*      ///                    ****       *************************************       ***                      ///      \n/*      ///                    ***        *************************************       ***                      ///      \n/*      ///                    ***        *************************************       ***                      ///      \n/*      ///                    ****       *************************************        **                      ///      \n/*      ///                    ****       *************************************       **                       ///      \n/*      ///                     ***        ******** ****************** *******        **                       ///      \n/*      ///                     ***         ****** ******************  ******         **                       ///      \n/*      ///                     ***          ******  ****** ********  ******          **                       ///      \n/*      ///                     **           ******   *****   *****   *****            *                       ///      \n/*      ///                      *            ******   ***** *****   *****                                     ///      \n/*      ///                                    *****   ***** *****   ****                                      ///      \n/*      ///                                     ****    *********   ****                                       ///      \n/*      ///                                      *****  ********   ****                                        ///      \n/*      ///                                       ***** ********   ****                                        ///      \n///     ///                                        ****  *******   ***                                         ///      \n///     ///                                           * ***** **     *                                         ///      \n///     ///                                             **** ****    *                                         ///      \n///     ///                                             ***   ***    *                                         ///      \n///     ///                                             ***    ***   *                                         ///      \n///     ///                                            ***      **   *                                         ///      \n///     ///                                            ***     * *                                             ///      \n///     ///                                              *                                                     ///      \n///     ///                                              *                                                     ///      \n///     ///                                              *                                                     ///      \n///     ///                                                                                                    ///      \n///     ///                                                                                                    ///      \n///     ///                                                                                                    ///      \n///     ///                                                                                                    ///      \n///     ///                                                                                                    ///      \n///     ///                                                                                                    ///      \n///     ///                                                                                                    ///      \n///     ///                                                                                                    ///      \n///     ///                                                                                                    ///      \n///     ///                                                                                                    ///      \n///     ///                                                                                                    ///      \n///     //////////////////////////////////////////////////////////////////////////////////////////////////////////    \n///          \n///                                                                                                                    \n///                                                                                                                   \n/// Website: ct-hu.com \n**/\n\n\npragma solidity ^0.7.0;\n\n// SPDX-License-Identifier: UNLICENSED\n\ninterface IERC20 {\n    function totalSupply() external view returns (uint);\n    function balanceOf(address who) external view returns (uint);\n    function allowance(address owner, address spender) external view returns (uint);\n    function transfer(address to, uint value) external returns (bool);\n    function approve(address spender, uint value) external returns (bool);\n    function transferFrom(address from, address to, uint value) external returns (bool);\n    event Transfer(address indexed from, address indexed to, uint value);\n    event Approval(address indexed owner, address indexed spender, uint value);\n}\n\ninterface ApproveAndCallFallBack {\n    function receiveApproval(address from, uint tokens, address token, bytes calldata data) external;\n}\n\ninterface burn{\n        function burnAmountOfTokensFromTheCallerBECAREFUL(uint256 amount) external;\n}\n\n/*\n * @dev Provides information about the current execution context, including the\n * sender of the transaction and its data. While these are generally available\n * via msg.sender and msg.data, they should not be accessed in such a direct\n * manner, since when dealing with GSN meta-transactions the account sending and\n * paying for execution may not be the actual sender (as far as an application\n * is concerned).\n *\n * This contract is only required for intermediate, library-like contracts.\n */\nabstract contract Context {\n    function _msgSender() internal view virtual returns (address payable) {\n        return msg.sender;\n    }\n\n    function _msgData() internal view virtual returns (bytes memory) {\n        this; // silence state mutability warning without generating bytecode - see https://github.com/ethereum/solidity/issues/2691\n        return msg.data;\n    }\n}\n\n/**\n * @dev Contract module which provides a basic access control mechanism, where\n * there is an account (an owner) that can be granted exclusive access to\n * specific functions.\n *\n * By default, the owner account will be the one that deploys the contract. This\n * can later be changed with {transferOwnership}.\n *\n * This module is used through inheritance. It will make available the modifier\n * `onlyOwner`, which can be applied to your functions to restrict their use to\n * the owner.\n */\nabstract contract Ownable is Context {\n    address private _owner;\n\n    event OwnershipTransferred(address indexed previousOwner, address indexed newOwner);\n\n    /**\n     * @dev Initializes the contract setting the deployer as the initial owner.\n     */\n    constructor ()  {\n        address msgSender = _msgSender();\n        _owner = msgSender;\n        emit OwnershipTransferred(address(0), msgSender);\n    }\n\n    /**\n     * @dev Returns the address of the current owner.\n     */\n    function owner() public view returns (address) {\n        return _owner;\n    }\n\n    /**\n     * @dev Throws if called by any account other than the owner.\n     */\n    modifier onlyOwner() {\n        require(_owner == _msgSender(), \"Ownable: caller is not the owner\");\n        _;\n    }\n\n    /**\n     * @dev Leaves the contract without owner. It will not be possible to call\n     * `onlyOwner` functions anymore. Can only be called by the current owner.\n     *\n     * NOTE: Renouncing ownership will leave the contract without an owner,\n     * thereby removing any functionality that is only available to the owner.\n     */\n    function renounceOwnership() public virtual onlyOwner {\n        emit OwnershipTransferred(_owner, address(0));\n        _owner = address(0);\n    }\n\n    /**\n     * @dev Transfers ownership of the contract to a new account (`newOwner`).\n     * Can only be called by the current owner.\n     */\n    function transferOwnership(address newOwner) public virtual onlyOwner {\n        require(newOwner != address(0), \"Ownable: new owner is the zero address\");\n        emit OwnershipTransferred(_owner, newOwner);\n        _owner = newOwner;\n    }\n}\n\ncontract SoulsHarvest is Ownable {\n    IERC20 public cthu;\n    IERC20 public souls;\n    burn soulAddressBurn;\n    address soulAddress;\nconstructor(address _cthu, address _souls) {\n        cthu = IERC20(_cthu);\n        souls = IERC20(_souls);\n        soulAddressBurn = burn(_souls);\n        soulAddress = _souls;\n    }\n    \n    event Bought(address indexed buyer, uint256 amount);\n    \n        function withdrawERC20Tokens(address tokenAddress, uint256 amount) public onlyOwner {\n        require(tokenAddress != soulAddress);\n        require(tokenAddress != address(this));\n        require(IERC20(tokenAddress).balanceOf(address(this)) >= amount);\n        IERC20(tokenAddress).transfer(msg.sender, amount);\n    }\n    \n    function buy(uint256 amount) external {\n        require(souls.balanceOf(msg.sender) >= amount);\n            uint cthuToRecieve = amount / 100;\n        require(cthu.balanceOf(address(this)) >= cthuToRecieve);\n        // @dev need to be approved via the UI\n        souls.transferFrom(msg.sender, address(this), amount);\n        // soulAddressBurn.burnAmountOfTokensFromTheCallerBECAREFUL(amount);\n        cthu.transfer(msg.sender, cthuToRecieve); // @TODO: This should be chtuToReceive\n        emit Bought(msg.sender, amount);\n    }\n}\n",
  "sourcePath": "/Users/frankp/Projekte/ethereum-projects/soul-farming/contracts/SoulsHarvest.sol",
  "compiler": {
    "name": "solc",
    "version": "0.7.1+commit.f4a555be.Linux.g++"
  },
  "schemaVersion": "3.3.1",
  "updatedAt": "2020-10-21T16:10:40.892Z",
  "networkType": "ethereum",
  "devdoc": {
    "kind": "dev",
    "methods": {
      "owner()": {
        "details": "Returns the address of the current owner."
      },
      "renounceOwnership()": {
        "details": "Leaves the contract without owner. It will not be possible to call `onlyOwner` functions anymore. Can only be called by the current owner. NOTE: Renouncing ownership will leave the contract without an owner, thereby removing any functionality that is only available to the owner."
      },
      "transferOwnership(address)": {
        "details": "Transfers ownership of the contract to a new account (`newOwner`). Can only be called by the current owner."
      }
    },
    "version": 1
  },
  "userdoc": {
    "kind": "user",
    "methods": {},
    "version": 1
  }
}